:020000040800F2
:1000000000000320B53F000809400008C3010008B4
:1000100009400008094000080940000800000000ED
:100020000000000000000000000000006D740008E7
:10003000094000080000000005760008013A0008A9
:10004000094000080940000809400008094000086C
:10005000094000080940000809400008094000085C
:10006000094000080940000809400008094000084C
:10007000094000080940000809400008094000083C
:10008000094000080940000809400008094000082C
:10009000094000080940000809400008094000081C
:1000A000094000080940000809400008094000080C
:1000B00009400008094000080940000809400008FC
:1000C00009400008094000080940000809400008EC
:1000D00009400008094000080940000809400008DC
:1000E00009400008094000080940000809400008CC
:1000F00009400008094000080940000809400008BC
:1001000009400008094000080940000809400008AB
:10011000094000080940000809400008094000089B
:10012000094000080940000809400008094000088B
:10013000094000080940000809400008094000087B
:10014000094000080940000809400008094000086B
:10015000094000080940000809400008094000085B
:10016000094000080940000809400008094000084B
:10017000094000080940000809400008000000008C
:10018000094000080940000809400008094000082B
:10019000094000080940000809400008094000081B
:0C01A000113A000809400008094000085E
:1001AC00ABBE00F002B800207047002A00F00180BE
:1001BC0010600120704706980188044A914240F073
:1001CC000380043006907047FEE70000ABBE0000D1
:1001DC00844641EA000313F003036DD1403A41D346
:1001EC0051F8043B40F8043B51F8043B40F8043B05
:1001FC0051F8043B40F8043B51F8043B40F8043BF5
:10020C0051F8043B40F8043B51F8043B40F8043BE4
:10021C0051F8043B40F8043B51F8043B40F8043BD4
:10022C0051F8043B40F8043B51F8043B40F8043BC4
:10023C0051F8043B40F8043B51F8043B40F8043BB4
:10024C0051F8043B40F8043B51F8043B40F8043BA4
:10025C0051F8043B40F8043B51F8043B40F8043B94
:10026C00403ABDD2303211D351F8043B40F8043B34
:10027C0051F8043B40F8043B51F8043B40F8043B74
:10028C0051F8043B40F8043B103AEDD20C3205D344
:10029C0051F8043B40F8043B043AF9D2043208D03C
:1002AC00D2071CBF11F8013B00F8013B01D30B88AE
:1002BC0003806046704700BF082A13D38B078DD08C
:1002CC0010F003038AD0C3F10403D21ADB071CBF5E
:1002DC0011F8013B00F8013B80D331F8023B20F8C8
:1002EC00023B7BE7043AD9D3013A11F8013B00F801
:1002FC00013BF9D20B7803704B7843708B78837089
:10030C006046704780B582B000AF78607B68002B88
:10031C0001D1012354E07B6893F85130DBB2002B00
:10032C0002D1786800F076F87B68022283F85120BD
:10033C007B681B687A681268126822F040021A60A7
:10034C007B681B687A6851687A68926811437A688E
:10035C00D26811437A68126911437A685269114361
:10036C007A68926902F4007211437A68D269114377
:10037C007A68126A11437A68926A0A431A607B6837
:10038C001B687A689269120C02F004017A68526A4E
:10039C000A435A607B681B687A68D26A1A617B6868
:1003AC001B687A681268D26922F40062DA617B6891
:1003BC00002283F852207B68012283F8512000230D
:1003CC0018460837BD4680BD80B582B000AF786056
:1003DC007B68002B01D1012317E07B681B687A68CE
:1003EC001268126822F040021A60786800F01CF85B
:1003FC007B68002283F852207B68002283F851200E
:10040C007B68002283F85020002318460837BD462D
:10041C0080BD00BF80B483B000AF78600C37BD46A0
:10042C005DF8047B704700BF80B483B000AF786088
:10043C000C37BD465DF8047B704700BF80B584B0B7
:10044C0000AFF860B9603B601346FB80FB6893F823
:10045C005130DBB2012B40F03081BB68002B02D055
:10046C00FB88002B01D1012328E1FB6893F8503065
:10047C00012B01D1022321E1FB68012283F85020DA
:10048C00FB68122283F85120FB68002283F852206B
:10049C00FB68BA681A63FB68FA889A86FB68FA8864
:1004AC00DA86FB680022DA64FB6800229A64FB6837
:1004BC0000229A87FB680022DA87FB689B6AB3F5F7
:1004CC00005F0FD1FB681B68FA681268126822F48F
:1004DC0000521A60FB681B68FA681268126842F4D2
:1004EC0000521A60FB689B68B3F5004F07D1FB689C
:1004FC001B68FA681268126842F480421A60FB6842
:10050C001B681B6803F04003002B07D1FB681B68BA
:10051C00FA681268126842F040021A60FB68DB68E5
:10052C00002B44D1FB685B68002B03D0FB68DB8E8F
:10053C00012B0FD1FB681A68FB681B6B581CF96800
:10054C0008631B78D360FB68DB8E013B9AB2FB68B7
:10055C00DA861AE019E0F868022100223B6800F004
:10056C00BFF80346002B01D00323A7E0FB681A68F1
:10057C00FB681B6B581CF96808631B78D360FB681D
:10058C00DB8E013B9AB2FB68DA86FB68DB8E002BB4
:10059C00E1D1FB689B6AB3F5005F50D1FB681B6827
:1005AC00FA681268126842F480521A6047E0FB68DD
:1005BC005B68002B03D0FB68DB8E012B11D1FB6831
:1005CC001B68FA68126B1288DA60FB681B6B9A1C4A
:1005DC00FB681A63FB68DB8E013B9AB2FB68DA8618
:1005EC001CE01BE0F868022100223B6800F078F860
:1005FC000346002B01D0032360E0FB681B68FA68FC
:10060C00126B1288DA60FB681B6B9A1CFB681A630E
:10061C00FB68DB8E013B9AB2FB68DA86FB68DB8EEB
:10062C00002BDFD1FB689B6AB3F5005F07D1FB6839
:10063C001B68FA681268126842F480521A60F868F3
:10064C00022100223B6800F04BF80346002B0BD034
:10065C00FB6893F85230DBB243F02003DAB2FB684C
:10066C0083F85220032329E0F868802101223B689B
:10067C0000F036F80346002B0BD0FB6893F8523091
:10068C00DBB243F02003DAB2FB6883F85220032379
:10069C0014E0FB689B68002B05D1FB681B68DB68CA
:1006AC00FB681B689B68FB68012283F85120FB6880
:1006BC00002283F85020002300E002231846103754
:1006CC00BD4680BD80B483B000AF78607B6893F882
:1006DC005130DBB218460C37BD465DF8047B7047D1
:1006EC0080B586B000AFF860B9603B601346FB7113
:1006FC0000237B6104F096FB7861FB79002B47D1DA
:10070C003DE03B68B3F1FF3F39D03B68002B07D08D
:10071C0004F088FB02467B69D21A3B689A422ED9B8
:10072C00FB681B68FA681268526822F0E0025A6093
:10073C00FB681B68FA681268126822F040021A60A3
:10074C00FB689B6AB3F5005F0FD1FB681B68FA6806
:10075C001268126822F400521A60FB681B68FA686F
:10076C001268126842F400521A60FB68012283F886
:10077C005120FB68002283F85020032350E0FB68D3
:10078C001B689A68BB681A40BB689A42B9D146E0AC
:10079C003DE03B68B3F1FF3F39D03B68002B07D0FD
:1007AC0004F040FB02467B69D21A3B689A422ED970
:1007BC00FB681B68FA681268526822F0E0025A6003
:1007CC00FB681B68FA681268126822F040021A6013
:1007DC00FB689B6AB3F5005F0FD1FB681B68FA6876
:1007EC001268126822F400521A60FB681B68FA68DF
:1007FC001268126842F400521A60FB68012283F8F6
:10080C005120FB68002283F85020032308E0FB688A
:10081C001B689A68BB681A40BB689A42B9D000231F
:10082C0018461837BD4680BD80B584B000AF7860DF
:10083C000023FB600023BB607B68002B01D10123EC
:10084C00BEE07B6893F83530DBB2002B02D17868C0
:10085C0000F0EAF87B68022283F835207B681B687D
:10086C007A681268126822F001021A6005F060FAC8
:10087C00B860BA68544BA3FB02039B0CFB607B680B
:10088C001B68FA685A607B681A687B6859684F4B1A
:10089C00994202D8FB68013309E0FB684FF496716A
:1008AC0001FB03F14A4BA3FB01039B0901331362C8
:1008BC007B6819687B685A68444B9A4212D87B68EB
:1008CC005B685B00BA68B2FBF3F3C3F30B03032B57
:1008DC0006D97B685B685B00BA68B2FBF3F345E052
:1008EC00042343E07B689B68002B0FD17B685A681C
:1008FC0013465B001344BA68B2FBF3F3C3F30B0368
:10090C00002B14BF00230123DBB210E07B685A6874
:10091C0013469B0013449A001344BA68B2FBF3F3DA
:10092C00C3F30B03002B14BF00230123DBB2002BFA
:10093C0001D001231AE07B689B68002B0AD17B68ED
:10094C005A6813465B001344BA68B2FBF3F343F4E2
:10095C0000430BE07B685A6813469B0013449A00D3
:10096C001344BA68B2FBF3F343F44043CB617B68A6
:10097C001B687A68D1697A68126A0A431A607B68C4
:10098C001B687A6811697A68D2680A439A607B6836
:10099C001B687A6851697A6892690A43DA607B68E5
:1009AC001B687A681268126842F001021A607B6850
:1009BC00002283F836207B68012283F8352000233F
:1009CC0018461037BD4680BD83DE1B43A086010050
:1009DC00D34D621080B582B000AF78607B68002B7D
:1009EC0001D101231BE07B68022283F835207B6850
:1009FC001B687A681268126822F001021A60786823
:100A0C0000F01CF87B68002283F836207B680022FB
:100A1C0083F835207B68002283F8342000231846A5
:100A2C000837BD4680BD00BF80B483B000AF78608E
:100A3C000C37BD465DF8047B704700BF80B483B0B3
:100A4C0000AF78600C37BD465DF8047B704700BF83
:100A5C0080B586B002AFF86079813A81FB80FB6883
:100A6C0093F83530DBB2012B40F09680BB69002B3C
:100A7C0002D0BB8B002B01D101238EE0FB681B68DD
:100A8C009B6903F00203002B01D0022385E0FB6875
:100A9C0093F83430012B01D102237EE0FB68012254
:100AAC0083F83420FB68322283F83520FB6800225F
:100ABC0083F8362079893A89FB88386A0090F8687F
:100ACC0000F0F4F90346002B11D0FB6893F8363094
:100ADC00DBB2042B05D1FB68002283F83420012300
:100AEC005BE0FB68002283F83420032355E028E008
:100AFC00F8682C4900223B6A00F0F6FA0346002BFA
:100B0C0001D0032349E0FB681A68BB69591CB96121
:100B1C001B781361BB8B013BBB83FB681B685B6958
:100B2C0003F00403002B0CD0BB8B002B09D0FB680B
:100B3C001A68BB69591CB9611B781361BB8B013BEB
:100B4C00BB83BB8B002BD3D1F868164900223B6AC0
:100B5C0000F0CAFA0346002B01D003231DE0FB680A
:100B6C001B68FA681268126842F400721A60F8681E
:100B7C000D4901223B6A00F0B7FA0346002B01D065
:100B8C0003230AE0FB68012283F83520FB6800226E
:100B9C0083F83420002300E0022318461037BD46AA
:100BAC0080BD00BF800001000200100080B586B03F
:100BBC0002AFF86079813A81FB80FB6893F835309D
:100BCC00DBB2012B40F05981BB69002B02D0BB8BEF
:100BDC00002B01D1012351E1FB681B689B6903F0D9
:100BEC000203002B01D0022348E1FB6893F8343058
:100BFC00012B01D1022341E1FB68012283F834204F
:100C0C00FB68422283F83520FB68002283F83620EB
:100C1C0079893A89FB88386A0090F86800F0B4F951
:100C2C000346002B11D0FB6893F83630DBB2042B53
:100C3C0005D1FB68002283F8342001231EE1FB68F8
:100C4C00002283F83420032318E1BB8B012B16D12F
:100C5C00FB681B68FA681268126822F480621A60DA
:100C6C00FB681B685B69FB681B689B69FB681B68FE
:100C7C00FA681268126842F400721A6020E0BB8BAA
:100C8C00022B16D1FB681B68FA681268126822F4F2
:100C9C0080621A60FB681B68FA681268126842F47A
:100CAC0000621A60FB681B685B69FB681B689B69C8
:100CBC0006E0FB681B685B69FB681B689B69BBE013
:100CCC00BAE0BB8B032B00F28F80BB8B012B16D1B0
:100CDC00F8686C4900223B6A00F006FA0346002BC8
:100CEC0001D00323CAE0BB695A1CBA61FA681268C6
:100CFC001269D2B21A70BB8B013BBB839CE0BB8BDD
:100D0C00022B29D1F868604900223B6A00F0ECF90B
:100D1C000346002B01D00323B0E0FB681B68FA6884
:100D2C001268126842F400721A60BB695A1CBA61EC
:100D3C00FA6812681269D2B21A70BB8B013BBB8382
:100D4C00BB695A1CBA61FA6812681269D2B21A707D
:100D5C00BB8B013BBB836FE0F8684B4900223B6ABD
:100D6C0000F0C2F90346002B01D0032386E0FB6898
:100D7C001B68FA681268126822F480621A60BB69F8
:100D8C005A1CBA61FA6812681269D2B21A70BB8B1B
:100D9C00013BBB83F8683C4900223B6A00F0A4F994
:100DAC000346002B01D0032368E0FB681B68FA683C
:100DBC001268126842F400721A60BB695A1CBA615C
:100DCC00FA6812681269D2B21A70BB8B013BBB83F2
:100DDC00BB695A1CBA61FA6812681269D2B21A70ED
:100DEC00BB8B013BBB8327E0F868264900223B6A9A
:100DFC0000F07AF90346002B01D003233EE0BB69D7
:100E0C005A1CBA61FA6812681269D2B21A70BB8B9A
:100E1C00013BBB83FB681B685B6903F00403002B7D
:100E2C000AD0BB695A1CBA61FA6812681269D2B24C
:100E3C001A70BB8B013BBB83BB8B002B7FF441AF88
:100E4C00FB681B68FA681268126822F400621A6068
:100E5C00F8680E4901223B6A00F046F90346002B64
:100E6C0001D003230AE0FB68012283F83520FB68DC
:100E7C00002283F83420002300E0022318461037A8
:100E8C00BD4680BD400001000400010002001000BE
:100E9C0080B483B000AF78607B6893F83530DBB2F8
:100EAC0018460C37BD465DF8047B704780B584B09E
:100EBC0000AFF86079813A81FB80FB681B68FA68A7
:100ECC001268126842F480721A60F8684FF00111CF
:100EDC000022BB6900F008F90346002B01D0032364
:100EEC004AE0FB681B687A89D2B202F0FE021A61F2
:100EFC00F8682349BA6900F081F90346002B09D040
:100F0C00FB6893F83630DBB2042B01D1012333E0BC
:100F1C00032331E0FB681B685B69FB681B689B69FA
:100F2C00F86818490022BB6900F0DEF80346002B74
:100F3C0001D0032320E0FB88012B05D1FB681B6843
:100F4C003A89D2B21A6116E0FB681B683A89120A18
:100F5C0092B2D2B21A61F8680A490022BB6900F059
:100F6C00C3F80346002B01D0032305E0FB681B6884
:100F7C003A89D2B21A61002318461037BD4680BD9B
:100F8C00020001008000010080B584B000AFF86061
:100F9C0079813A81FB80FB681B68FA6812681268D9
:100FAC0042F480621A60FB681B68FA681268126867
:100FBC0042F480721A60F8684FF001110022BB698C
:100FCC0000F092F80346002B01D0032383E0FB686A
:100FDC001B687A89D2B202F0FE021A61F8684049A5
:100FEC00BA6900F00BF90346002B09D0FB6893F8A3
:100FFC003630DBB2042B01D101236CE003236AE011
:10100C00FB681B685B69FB681B689B69F868354962
:10101C000022BB6900F068F80346002B01D00323C3
:10102C0059E0FB88012B05D1FB681B683A89D2B2C9
:10103C001A6116E0FB681B683A89120A92B2D2B2A6
:10104C001A61F86827490022BB6900F04DF8034685
:10105C00002B01D003233EE0FB681B683A89D2B217
:10106C001A61F8681F490022BB6900F03DF803467D
:10107C00002B01D003232EE0FB681B68FA68126872
:10108C00126842F480721A60F8684FF00111002265
:10109C00BB6900F029F80346002B01D003231AE0AA
:1010AC00FB681B687A89D2B242F00102D2B21A6193
:1010BC00F8680B49BA6900F0A1F80346002B09D077
:1010CC00FB6893F83630DBB2042B01D1012302E02C
:1010DC00032300E0002318461037BD4680BD00BF37
:1010EC00020001008000010080B586B000AFF860FE
:1010FC00B9603B601346FB7100237B6103F092FEE9
:10110C007861FB79002B3AD118E03B68B3F1FF3FD3
:10111C0014D03B68002B07D003F084FE02467B6999
:10112C00D21A3B689A4209D9FB68012283F8352010
:10113C00FB68002283F8342003235BE0BB681B0CA4
:10114C00DBB2012B0CD1FB681B685B69DA43BB6813
:10115C0013409BB2002B0CBF00230123DBB20BE02E
:10116C00FB681B689B69DA43BB6813409BB2002B7E
:10117C000CBF00230123DBB2002BC6D139E018E0F1
:10118C003B68B3F1FF3F14D03B68002B07D003F052
:10119C0049FE02467B69D21A3B689A4209D9FB6820
:1011AC00012283F83520FB68002283F834200323C6
:1011BC0020E0BB681B0CDBB2012B0CD1FB681B685D
:1011CC005B69DA43BB6813409BB2002B14BF00234E
:1011DC000123DBB20BE0FB681B689B69DA43BB683D
:1011EC0013409BB2002B14BF00230123DBB2002B56
:1011FC00C6D1002318461837BD4680BD80B586B0D1
:10120C0000AFF860B9607A6000237B6103F00AFEDE
:10121C0078613AE0FB681B685B6903F48063002B20
:10122C001AD0FB681B68FA681268126842F40072E4
:10123C001A60FB681B686FF480625A61FB680422B9
:10124C0083F83620FB68012283F83520FB680022E6
:10125C0083F83420012339E07B68B3F1FF3F14D0CD
:10126C007B68002B07D003F0DDFD02467B69D21AA8
:10127C007B689A4209D9FB68012283F83520FB6808
:10128C00002283F83420032320E0BB681B0CDBB264
:10129C00012B0CD1FB681B685B69DA43BB681340FC
:1012AC009BB2002B0CBF00230123DBB20BE0FB68CD
:1012BC001B689B69DA43BB6813409BB2002B0CBFC5
:1012CC0000230123DBB2002BA4D1002318461837CE
:1012DC00BD4680BD80B584B000AF78600023FB6054
:1012EC000023BB607B68002B01D10123C3E07B682A
:1012FC0093F8A130DBB2002B02D1786800F03CFEF1
:10130C007B68022283F8A1207B681B687A681268CC
:10131C00926922F070429A617B681B687A68126845
:10132C0091697A6850687A68926810437A68D268D2
:10133C0010437A68126902430A439A617B681A68FF
:10134C007B681B6899684E4B0B4093607B685B69AC
:10135C001B04FB607B681B687A68126891687A686A
:10136C009069FA6802430A439A607B681A687B6842
:10137C001B68D968424B0B40D3607B68DB691B044C
:10138C00FB607B681B687A681268D1687A68106A9F
:10139C00FA6802430A43DA607B681A687B681B6848
:1013AC001969374B0B4013617B685B6A1B04FB604C
:1013BC007B681B687A68126811697A68906AFA68A7
:1013CC0002430A431A617B681A687B681B68596977
:1013DC002B4B0B4053617B68DB6A1B04FB607B6807
:1013EC001B687A68126851697A68106BFA68024354
:1013FC000A435A617B6893F835301B02FB607B68AB
:10140C0093F836301B04BB607B681B687A681268E3
:10141C00D26A02F07F42DA627B681B687A681268D3
:10142C00D16AB868FA6810437A6892F8342002439B
:10143C000A43DA627B681B687A681268526B42F066
:10144C0004025A637B681B687A681268526B42F01C
:10145C0002025A637B681B687A681268926942F0D0
:10146C0001029A617B680022C3F8A4207B680122E8
:10147C0083F8A120002318461037BD4680BD00BF5D
:10148C0000F800F080B582B000AF7860786800F0AA
:10149C000BFE7B680022C3F8A4207B68002283F833
:1014AC00A1207B68002283F8A0200023184608376F
:1014BC00BD4680BD80B582B000AF78607B681B688C
:1014CC009B6B03F00403002B25D07B681B689B6B84
:1014DC0003F00403002B1ED07B681B687A6812682B
:1014EC00526B22F004025A637B681B680422DA6395
:1014FC007B68D3F8A43043F001027B68C3F8A420C6
:10150C007B68042283F8A1207B68002283F8A0204A
:10151C00786800F055F87B681B689B6B03F002033E
:10152C00002B25D07B681B689B6B03F00203002B00
:10153C001ED07B681B687A681268526B22F002021C
:10154C005A637B681B680222DA637B68D3F8A43089
:10155C0043F002027B68C3F8A4207B68042283F862
:10156C00A1207B68002283F8A020786800F028F87E
:10157C007B681B689B6B03F00103002B1DD07B6801
:10158C001B689B6B03F00103002B16D07B681B6858
:10159C007A681268526B22F001025A637B681B68EE
:1015AC000122DA637B68012283F8A1207B68002288
:1015BC0083F8A020786800F08FFD0837BD4680BD09
:1015CC0080B483B000AF78600C37BD465DF8047B07
:1015DC00704700BFB0B584B000AFF860B9607A60F6
:1015EC00FB6893F8A030012B01D102232CE0FB689F
:1015FC00012283F8A020FB68022283F8A120FA685C
:10160C007B68342101FB03F3134403F13802BB68FC
:10161C0014461D460FCD0FC40FCD0FC40FCD0FC4F4
:10162C002B682360F868B9687A6800F039FAFB68AF
:10163C001B6801225A62FB68012283F8A120FB6817
:10164C00002283F8A020002318461037BD46B0BDF9
:10165C0080B485B000AFF860B9607A60FB6893F82D
:10166C00A030012B01D102232FE0FB68012283F86B
:10167C00A020FB68022283F8A120FB681B681A4695
:10168C007B68DB0113448433FA68126811467A686C
:10169C00D2010A448432D26802F07F42DA60FB68DD
:1016AC001B681A467B68DB0113448433BA68DA6022
:1016BC00FB681B6801225A62FB68012283F8A12097
:1016CC00FB68002283F8A020002318461437BD467F
:1016DC005DF8047B704700BF80B489B000AFF86040
:1016EC00B9607A603B600023BB610023FB6100237F
:1016FC007B61FB6893F8A030012B01D1022339E008
:10170C00FB68012283F8A020FB68022283F8A12049
:10171C000023FB6121E0FB691A06BB681B68DBB286
:10172C001A43BB681B6803F47F431A43BB681B68EE
:10173C0003F47F031343BB61BB6804337B617B6998
:10174C00BB60FB681B681A463B68DB01134484339F
:10175C00BA691A64FB690133FB61FA697B689A42C6
:10176C00D9D3FB68012283F8A120FB68002283F8FF
:10177C00A020002318462437BD465DF8047B704733
:10178C0080B483B000AF786039607B6893F8A03088
:10179C00012B01D1022326E07B68012283F8A020D3
:1017AC007B68022283F8A1207B681B681A463B6881
:1017BC00DB01134484337A68126811463A68D2010B
:1017CC000A448432126842F002021A607B681B6879
:1017DC0001225A627B68012283F8A1207B680022D7
:1017EC0083F8A020002318460C37BD465DF8047B17
:1017FC00704700BF80B483B000AF786039607B68FD
:10180C0093F8A030012B01D1022326E07B68012242
:10181C0083F8A0207B68022283F8A1207B681B68D8
:10182C001A463B68DB01134484337A68126811460C
:10183C003A68D2010A448432126822F002021A6019
:10184C007B681B6801225A627B68012283F8A12005
:10185C007B68002283F8A020002318460C37BD4675
:10186C005DF8047B704700BF80B483B000AF786034
:10187C0039607B6893F8A030012B01D1022326E05C
:10188C007B68012283F8A0207B68022283F8A120C8
:10189C007B681B681A463B68DB01134484337A6807
:1018AC00126811463A68D2010A448432126842F036
:1018BC0010021A607B681B6801225A627B68012245
:1018CC0083F8A1207B68002283F8A020002318460F
:1018DC000C37BD465DF8047B704700BF80B586B001
:1018EC0000AFF860B9607A603B60FB6893F8A03099
:1018FC00012B01D1022333E0FB68012283F8A020E5
:10190C00FB68022283F8A1203B68342202FB03F31C
:10191C003833FA6813447B617B69BA681A607B6957
:10192C009A6ABB681A447B695A607B697A689A60C8
:10193C007B69DA6A7B681A447B69DA60F8687969D2
:10194C003A6800F0ADF8FB681B6801225A62FB682C
:10195C00012283F8A120FB68002283F8A020002339
:10196C0018461837BD4680BD80B586B000AFF8600C
:10197C00B9607A60FB6893F8A030012B01D1022387
:10198C0024E0FB68012283F8A020FB68022283F884
:10199C00A1207B68342202FB03F33833FA6813442A
:1019AC007B617B69BA685A61F86879697A6800F07A
:1019BC0077F8FB681B6801225A62FB68012283F8E6
:1019CC00A120FB68002283F8A020002318461837BA
:1019DC00BD4680BD80B586B000AFF860B9607A6056
:1019EC00FB6893F8A030012B01D1022324E0FB68A3
:1019FC00012283F8A020FB68022283F8A1207B68D7
:101A0C00342202FB03F33833FA6813447B617B699D
:101A1C00BA685A62F86879697A6800F041F8FB682C
:101A2C001B6801225A62FB68012283F8A120FB6823
:101A3C00002283F8A020002318461837BD4680BD2D
:101A4C0080B483B000AF786039607B6893F8A030C5
:101A5C00012B01D102231BE07B68012283F8A0201B
:101A6C007B68022283F8A1207B681B687A68126865
:101A7C00526B42F001025A63084B3A681A647B6855
:101A8C00012283F8A1207B68002283F8A020002388
:101A9C0018460C37BD465DF8047B70470068014062
:101AAC0080B489B000AFF860B9607A600023FB6144
:101ABC000023BB6100237B61BB685A68FB681B6811
:101ACC00D968914B0B401B0C13441B04FB61FB6846
:101ADC001B681A467B68DB0113448433FA6812686E
:101AEC0011467A68D2010A448432526802F4704278
:101AFC005A60FB681B681A467B68DB01134484330D
:101B0C001A46BB681968FB681B68D8687E4B034093
:101B1C001B0C0B44591CFB690B435360BB68DA6804
:101B2C00FB681B68DB68C3F30A0313441B04FB61EB
:101B3C00FB681B681A467B68DB0113448433FA6824
:101B4C00126811467A68D2010A448432926802F40F
:101B5C0070429A60FB681B681A467B68DB01134471
:101B6C008433BA689168FA681268D268C2F30A02C0
:101B7C000A44511CFA690A439A60FB681B681A46AE
:101B8C007B68DB0113448433FA68126811467A6867
:101B9C00D2010A448432126922F007021A61FB68EE
:101BAC001B681A467B68DB0113448433BA681269DC
:101BBC001A61BB6893F831301B02FB61BB6893F868
:101BCC0032301B04BB61BB689B691B067B61FB68E5
:101BDC001B681A467B68DB01134484339B69FB68E2
:101BEC001B681A467B68DB011344843300229A611C
:101BFC00FB681B681A467B68DB0113448433BA68A4
:101C0C0092F830201146FA691143BA6911437A6986
:101C1C000A439A61FB681B681A467B68DB01134414
:101C2C008433FA68126811467A68D2010A44843205
:101C3C00526922F0FF025A61FB681B681A467B68E6
:101C4C00DB0113448433BA6852695A61FB681B6820
:101C5C001A467B68DB01134484331A46FB681B6805
:101C6C0019467B68DB010B448433DB6923F4E063A6
:101C7C0023F00703D361FB681B681A467B68DB0102
:101C8C0013448433BA68D169BA68126A0A43DA61B8
:101C9C00FB681B681A467B68DB01134484339B6A20
:101CAC00FB681B681A467B68DB01134484330022F3
:101CBC009A62FB681B681A467B68DB011344843309
:101CCC00BA68526A9A62BB681B69002B02D1042362
:101CDC00FB611DE0BB681B69012B02D10323FB6177
:101CEC0016E0BB681B69042B0BD0BB681B69022B6D
:101CFC0007D0BB681B69032B03D0BB681B69072B80
:101D0C0004D10223FB6103E00000FF0F0123FB6100
:101D1C00FB681B681A467B68DB0113448433FA6842
:101D2C00126811467A68D2010A448432D26A02F0EF
:101D3C00E022DA62FB681B681A467B68DB011344FD
:101D4C008433BA68926AF96901FB02F21104BA6829
:101D5C00926AF86900FB02F203320A43DA62FB680A
:101D6C001B681A467B68DB01134484331A46FB68F4
:101D7C001B6819467B68DB010B4484331B6B23F413
:101D8C00FF6323F007031363FB681B681A467B6829
:101D9C00DB0113448433BA68D26A1A63FB681B688C
:101DAC001A467B68DB0113448433FA6812681146C7
:101DBC007A68D2010A448432126842F001021A6035
:101DCC002437BD465DF8047B704700BF80B500AF7B
:101DDC0004484FF40C310DF0EBFC03480DF082F984
:101DEC0080BD00BF500100207038010880B586B05E
:101DFC0002AFF860B9607A60FB70FB780022009249
:101E0C00F868B9687A6801F025F91037BD4680BDCD
:101E1C0080B586B002AFF860B9607A60FB70FB7871
:101E2C0000220092F868B9687A6801F0F9F8103766
:101E3C00BD4680BD80B586B002AFF860B9607A60EF
:101E4C00FB70FB7800220092F868B9687A6801F0A0
:101E5C0001F91037BD4680BD80B586B002AFF86081
:101E6C00B9607A60FB70FB7800220092F868B96860
:101E7C007A6801F0D5F81037BD4680BD80B586B0C4
:101E8C0002AFF860B9607A60FB70FB7802220092B6
:101E9C00F868B9687A6801F0DDF81037BD4680BD86
:101EAC0080B586B002AFF860B9607A60FB70FB78E1
:101EBC0002220092F868B9687A6801F0B1F810371C
:101ECC00BD4680BD80B586B002AFF860B9607A605F
:101EDC00FB70FB7803220092F868B9687A6801F00D
:101EEC00B9F81037BD4680BD80B586B002AFF8603A
:101EFC00B9607A60FB70FB7803220092F868B968CD
:101F0C007A6801F08DF81037BD4680BD80B586B07B
:101F1C0002AFF860B9607A60FB70FB780422009223
:101F2C00F868B9687A6801F095F81037BD4680BD3D
:101F3C0080B586B002AFF860B9607A60FB70FB7850
:101F4C0004220092F868B9687A6801F069F81037D1
:101F5C00BD4680BD80B483B000AF7860054B054AA8
:101F6C00126B42F400021A630C37BD465DF8047B19
:101F7C00704700BF0038024080B588B000AF786071
:101F8C00424B424A526C42F080625A643F4B3F4A89
:101F9C00126B42F001021A633C4B3C4A126B42F04A
:101FAC0002021A63394B394A126B42F004021A636B
:101FBC00364B364A126B42F008021A63334B334AE3
:101FCC00126B42F020021A63304B304A126B42F013
:101FDC0040021A6341F65803FB6002233B61002365
:101FEC007B610223BB610E23FB6107F10C032848C4
:101FFC00194605F091FB4FF47063FB6007F10C037D
:10200C002448194605F088FB4FF49863FB6007F1F0
:10201C000C032148194605F07FFB4823FB6007F1B0
:10202C000C031E48194605F077FB4FF48063FB60E8
:10203C0007F10C031A48194605F06EFB4FF40C63BC
:10204C00FB6007F10C031748194605F065FB0323E9
:10205C00FB600923FB6107F10C030E48194605F0E0
:10206C005BFB4FF4A053FB6007F10C030D481946C2
:10207C0005F052FB58200F21002203F055FF582089
:10208C0003F06EFF2037BD4680BD00BF0038024014
:10209C00000002400004024000080240000C024014
:1020AC00001402400018024080B483B000AF786086
:1020BC00084B084A526A42F080625A62054B054A44
:1020CC00526A22F080625A620C37BD465DF8047B7E
:1020DC00704700BF0038024090B585B000AF786003
:1020EC000023FB6063E03749FA681346DB009B1A58
:1020FC009B000B445B68002B56DB3249FA68134695
:10210C00DB009B1A9B000B4419682E48FA68134697
:10211C00DB009B1A9B00034408335868294CFA686F
:10212C001346DB009B1A9B00234410331B6803FBF4
:10213C0000F0244CFA681346DB009B1A9B002344E6
:10214C005B6803FB00F01F4CFA681346DB009B1A1C
:10215C009B00234410335B6803FB00F30B44BB6010
:10216C007868B968FA68FFF735FC7B681B687A6891
:10217C001268526A42F001025A62F9681148FA6810
:10218C001346DB009B1A9B0003445B680846194608
:10219C000CF03CFD0B49FA681346DB009B1A9B00C4
:1021AC000B444FF0FF325A60FB680133FB60FB6855
:1021BC00002B98D078680021FFF742FC1437BD46FD
:1021CC0090BD00BF9031022080B582B000AF00F00E
:1021DC007DFA59485949002200230CF0EDFE0020ED
:1021EC000BF0BFF80346002B0CD000204FF4A0716D
:1021FC00F0220BF00BF800204FF42071F0220AF0C3
:10220C00EEFF0BE00020F0214FF4A0720AF0FEFF6D
:10221C000020F0214FF420720AF0E1FF484B494AAC
:10222C001A6000237B607FE0474B7A6853F82210DA
:10223C0043487A681346DB009B1A9B00034418330F
:10224C0019603F497A681346DB009B1A9B000B44CC
:10225C004FF0FF325A60796839487A681346DB00D0
:10226C009B1A9B0003441B68084619460AF0A2FF00
:10227C007B6818460BF069F80346D91030487A6829
:10228C001346DB009B1A9B000344103359607B6898
:10229C00184621212D4A0BF015F87B68184623218E
:1022AC002B4A0BF00FF8786800F084FA0346042BE5
:1022BC000BD87B6818461921264A0BF003F87B686B
:1022CC0018462521244A0AF0FDFF786800F072FABE
:1022DC000346022B05D17B68184624211F4A0AF0BD
:1022EC00F1FF1F481F490DF0B1FF1F481F490DF0AA
:1022FC0099FD1F481F490DF017FF1F481F490DF08E
:10230C000BFD1F481F490DF06BFE1F480BF0E6FF3D
:10231C001E480CF0E1FE1E480BF0E6FF1D480BF0CA
:10232C00E9FF7B6801337B607B68002B3FF47CAF5B
:10233C000837BD4680BD00BFE44701089449010839
:10234C0090310220000020D000000020B1290008AC
:10235C00612A0008752B00085D32000895310008D1
:10236C00D11E0008F51E0008891E0008AD1E0008CD
:10237C00191F00083D1F0008411E0008651E0008BB
:10238C00F91D00081D1E0008E12F0008D92E0008B9
:10239C00C12D00089530000890B58BB000AFF860E7
:1023AC00B9607A6000237B62BB68013B0D2B00F2A5
:1023BC00038101A252F823F0FD230008C525000873
:1023CC00052400086B2400087B2400088D240008D9
:1023DC001B250008032500089F2400086D25000814
:1023EC00C52500087D2500089925000855240008FE
:1023FC00F86800F0EDF8E2E07349FA681346DB0088
:10240C009B1A9B000B4419687B6858686E4CFA68E1
:10241C001346DB009B1A9B00234408335B6803FBC9
:10242C0000F0694CFA681346DB009B1A9B002344AE
:10243C0010335B6803FB00F30B443B626348396A5F
:10244C00FA68FFF7C7FABAE07B6819685E48FA6861
:10245C001346DB009B1A9B0003445960AFE07B687A
:10246C005A4819460122FB68FFF736F9A7E0574B8B
:10247C001B68564A1268926942F001029A619EE00A
:10248C00524B1B68514A1268926922F001029A6100
:10249C0095E07B681B68012B12D14C4B1B681A46CC
:1024AC00FB68DB0113448433484A12681146FA680E
:1024BC00D2010A448432126842F001021A6011E01F
:1024CC00424B1B681A46FB68DB01134484333F4ABA
:1024DC0012681146FA68D2010A448432126822F05A
:1024EC0001021A60394B1B68384A1268526A42F072
:1024FC0001025A6263E07B681B681A467B685B6862
:10250C00324811461A46FB68FFF7E8F957E007F125
:10251C00180207F11403F86811461A460CF0FEF97C
:10252C007B6819682848FA681346DB009B1A9B00E5
:10253C000344083359607B6859682348FA6813468A
:10254C00DB009B1A9B00034410331960BB691A46CD
:10255C007B691E4811461A46FB68FFF7BFF92EE04F
:10256C007B681B6819481946FA68FFF7FDF926E0E5
:10257C007B681B68002B04D01448F968FFF700F93E
:10258C001DE01248F968FFF735F918E07B681B6805
:10259C0003F47F031A0C7B681B6803F47F431A4314
:1025AC007B681B68DBB21B041343FB610748F969AA
:1025BC00FA68FFF74DF802E04FF0FF337B627B6A5D
:1025CC0018462C37BD4690BD9031022018A402202D
:1025DC0080B590B000AF78607B68002B69D1002388
:1025EC00BB60F023FB6000233B614FF4A0737B6165
:1025FC00786800F0DFF80346BB612F497A68134610
:10260C00DB009B1A9B000B441B68FB62FF23FB61E6
:10261C0000233B62002387F83830002387F83930D9
:10262C00002387F83A304FF4C0637B620723BB6208
:10263C00F0233B634FF4A0737B6307F108031F483F
:10264C0019467A68FEF7C6FF7B6818460AF07DFECD
:10265C000346082B04DC19487968FFF705F928E0D4
:10266C0015497A681346DB009B1A9B000B44183300
:10267C001A68134B9A421CD110487968FFF7F4F88A
:10268C000023FB630BE00F4B5B68F86B984701462C
:10269C000D4BFA6B43F82210FB6B0133FB63FB6BA6
:1026AC00FF2BF0D9054808494FF480727B68FFF77F
:1026BC0013F84037BD4680BD9031022018A402208B
:1026CC00DC490108F4490108AC5E022080B500AF7A
:1026DC003348FEF7D7FE05F0EBF9314B09225A616E
:1026EC002F4B01229A612E4B1D22DA612C4B0322B7
:1026FC001A622B4B40F243129A62294B40F20D1294
:10270C005A62274B40F247121A63254B40F21712BC
:10271C00DA62234B002283F83420214B002283F809
:10272C0035201F4B002283F836201E4B08221A60DE
:10273C001C4BC0221A611B4B04229A61194B4FF49B
:10274C0000325A62174802F08FFB154B00225A6078
:10275C00134B00229A60124B0022DA60104B0022BD
:10276C001A610F4B104A1A600D48FEF7B3FD0C4866
:10277C000021FFF765F90D4B4FF440325A600B4BBB
:10278C0002229A60094B0022DA60084B084A1A6050
:10279C00064800F0C1FD0346002B00D0FEE780BDCB
:1027AC0018A40220AC6202200068014050310220C3
:1027BC0000B0024080B485B000AF78607B68002B1D
:1027CC0001D000233AE020497A681346DB009B1ABB
:1027DC009B000B4418331B68FB60FA681B4B9A4236
:1027EC0001D100232AE0FA68194B9A4201D1012346
:1027FC0024E0FA68174B9A4201D102231EE0FA68D2
:10280C00154B9A4201D1032318E0FA68134B9A42F4
:10281C0001D1042312E0FA68114B9A4201D105232D
:10282C000CE0FA680F4B9A4201D1062306E0FA68D5
:10283C000D4B9A4201D1072300E0FEE718461437EE
:10284C00BD465DF8047B7047903102209449010825
:10285C00344901084C490108C4490108AC49010834
:10286C00F44901080C4A0108DC49010880B586B01E
:10287C0000AFF860B9607A603B60F868FFF79AFFC8
:10288C007861154B4FF400721A60134BBA68DA601A
:10289C00114B7A68DA63104B7A6A1A610E4BBA6A7A
:1028AC001A640D4B7A69DA610B4B3A6811043A6A77
:1028BC0092B20A435A64084B074A126842F001026A
:1028CC001A6000BF044B1B6803F00103002BF9D105
:1028DC001837BD4680BD00BF00B0024080B586B041
:1028EC0000AFF860B9607A603B60F868FFF762FF90
:1028FC007861134B134A1A60114B7A6A9A63104B26
:10290C00BA68DA630E4B3A6A1A640D4B7A695A63E9
:10291C000B4B7A6811043A6892B20A435A64084B1A
:10292C00074A126842F001021A6000BF044B1B6890
:10293C0003F00103002BF9D11837BD4680BD00BF51
:10294C0000B002400002030080B485B000AF786094
:10295C0013497A681346DB009B1A9B000B4408331F
:10296C0059680F487A681346DB009B1A9B00034496
:10297C0010331B6803FB01F109487A681346DB002E
:10298C009B1A9B00034410335B6803FB01F3FB6051
:10299C00FB6818461437BD465DF8047B704700BFD2
:1029AC0090310220F0B58DB004AFF860B9607A6058
:1029BC00FB681846FFF7C8FFF8612549FA6813460B
:1029CC00DB009B1A9B000B441B681A46BB68F96919
:1029DC0001FB03F31344BB611D49FA681346DB008A
:1029EC009B1A9B000B441B681A467B68F96901FB18
:1029FC0003F313447B61F868B9697D69144CFA6878
:102A0C001346DB009B1A9B00234408335B681C466F
:102A1C000F4EFA681346DB009B1A9B0033441033AD
:102A2C001B68009300230193002302932A4623463C
:102A3C00FFF71CFF0649FA681346DB009B1A9B0044
:102A4C000B4408337A681A602437BD46F0BD00BFCA
:102A5C0090310220F0B58DB004AFF860B9607A60A7
:102A6C003B60FB681846FFF76FFF0346FB613D496F
:102A7C00FA681346DB009B1A9B000B441968394813
:102A8C00FA681346DB009B1A9B0003445B68FA69E7
:102A9C0002FB03F319443348FA681346DB009B1A14
:102AAC009B00034408335B687A6802FB03F2BB6843
:102ABC00D0182C4CFA681346DB009B1A9B0023445D
:102ACC0010335B6803FB00F30B44BB612549FA68C8
:102ADC001346DB009B1A9B000B4419682148FA68CB
:102AEC001346DB009B1A9B0003445B68FA6902FBEC
:102AFC0003F319441B48FA681346DB009B1A9B002E
:102B0C00034408335B68BA6B02FB03F23B68D018D2
:102B1C00144CFA681346DB009B1A9B0023441033B9
:102B2C005B6803FB00F30B447B61F868B9697D6952
:102B3C00FC6B3E6CDFF82CE0FA681346DB009B1A4A
:102B4C009B00734408335A68FB6BD31A00960193AD
:102B5C00002302932A462346FFF788FE2437BD46FE
:102B6C00F0BD00BF90310220F0B58BB002AFF86021
:102B7C00B9607A603B600CF087F80346012B10D1EA
:102B8C00F868192100220AF09DFBB86879683A6848
:102B9C00BB6B0AF0B5FDF86819212F4A0AF092FBBD
:102BAC0056E03A68BB68D31A0133FB61BA6B7B6899
:102BBC00D31A0133BB61FB681846FFF7C5FE786179
:102BCC002649FA681346DB009B1A9B000B441B68D2
:102BDC0019462248FA681346DB009B1A9B000344F3
:102BEC0008335B687A6802FB03F2BB68D0181B4C95
:102BFC00FA681346DB009B1A9B00234410335B6876
:102C0C0003FB00F31846154CFA681346DB009B1ABD
:102C1C009B00234408331B687A6902FB03F30344CB
:102C2C000B443B61F8683969FD69BC690B4EFA6865
:102C3C001346DB009B1A9B00334408335A68FB692C
:102C4C00D31A0093FB6B01932A462346FFF746FEEB
:102C5C002437BD46F0BD00BF752B00089031022013
:102C6C0080B483B000AF786039600B4B7A68DA625D
:102C7C00094B3A68013A120292B242F00102DA614F
:102C8C00054B054AD26942F02002DA610C37BD4689
:102C9C005DF8047B704700BF00B0024080B487B081
:102CAC0000AFF860B9607A60FB681A1DFA601B68A7
:102CBC007B61BB681A1DBA607A69D2B211047A6959
:102CCC0002F47F4211437A6902F47F02120C114321
:102CDC007A69D24302F07F420A431A607B68013B57
:102CEC007B607B68002BDFD11C37BD465DF8047B15
:102CFC00704700BF80B487B000AFF860B9607A60ED
:102D0C00FB681A1DFA601B687B61BB681A1DBA60F0
:102D1C007A6982F07F421A607B68013B7B607B683A
:102D2C00002BEDD11C37BD465DF8047B704700BF0E
:102D3C0080B485B000AFF860B9607A603B601B4B23
:102D4C001B4A1A60194BFA68DA60184BBA685A6158
:102D5C00164B7A68DA63154B00221A61134B00226A
:102D6C009A61124B00221A64104B0022DA610F4B4D
:102D7C0000225A620D4B00225A630C4B3A68120423
:102D8C0042F001025A64094B084A126842F00102EF
:102D9C001A6000BF054B1B6803F00103002BF9D12F
:102DAC001437BD465DF8047B704700BF00B002408D
:102DBC000002020080B489B000AFF860B96013461D
:102DCC00FB71BB6803F07F43B3F17F4F01D1FB680C
:102DDC0039E0FB6883F07F43FB61BB6883F07F4382
:102DEC00BB611C4B1C4A1A601A4B07F11C02DA60BF
:102DFC00184B07F118025A61164B07F11402DA63EB
:102E0C00144BFA79120642F48032DA61114BFA79DA
:102E1C00C2F1FF0212065A620E4B00225A630D4B8E
:102E2C004FF001125A640B4B0A4A126842F001022D
:102E3C001A6000BF074B1B6803F00103002BF9D18C
:102E4C007B6983F07F4318462437BD465DF8047BCD
:102E5C00704700BF00B002400002020080B485B091
:102E6C0000AFF860B9607A603B60174B4FF4813269
:102E7C001A60154BFA68DA60134BBA68DA63124BB6
:102E8C0000221A61104B00221A640F4B7A68DA6127
:102E9C000D4B3A685A630C4BBA69120442F00102AA
:102EAC005A64094B084A126842F001021A6000BFCA
:102EBC00054B1B6803F00103002BF9D11437BD46F9
:102ECC005DF8047B704700BF00B0024080B586B04F
:102EDC0000AFF860B9607A6000237B61BB68DB8867
:102EEC00082B19D1786825210AF062FA38613B6900
:102EFC00002B0ED0BB68DB68002B07D0BB68DB68EF
:102F0C001B79002B0AD001237B6107E001237B6135
:102F1C0004E001237B6101E001237B617B69002BD1
:102F2C0004D0F8680AF018FB03460FE0FB689A68B7
:102F3C00FB681B68104607491A46FFF7AFFEFB6893
:102F4C001B6804481946FFF78BFE024B18461837CE
:102F5C00BD4680BDAC31022080B485B000AFF860B6
:102F6C00B9607A60FB70194B194A1A60174BFA68F2
:102F7C00DA60164BBA685A61144B7A68DA63134BF1
:102F8C00FA78120642F48032DA61104BFA78C2F108
:102F9C00FF0212065A620D4B00225A630B4BBA69A0
:102FAC00120442F001025A64084B084A126842F0BB
:102FBC0001021A6000BF054B1B6803F00103002BD4
:102FCC00F9D11437BD465DF8047B704700B0024060
:102FDC000002020080B584B000AFF860B9607A607E
:102FEC003B60F8680B493A68FFF784FEB8680A49F9
:102FFC003A68FFF77FFE07480749084A3B68FFF726
:10300C0097FE064879683A68FFF774FE1037BD469C
:10301C0080BD00BFAC400220AC4F0220AC3102207E
:10302C0080B586B002AFF860B9607A60FB707B68DF
:10303C000093F8680649BA690023FFF70FFF0448AC
:10304C00B9687A68FFF72AFE1037BD4680BD00BF0D
:10305C00AC31022080B586B002AFF860B9607A60FE
:10306C00FB70F86807497A68FFF718FE7B680093D5
:10307C000448B9680022BB69FFF7F0FE1037BD4663
:10308C0080BD00BFAC31022080B588B002AFF860C3
:10309C00B9607A603B6000237B612FE0F8681B49C4
:1030AC00BA6AFFF727FEB8681949BA6AFFF722FE19
:1030BC0097F83030BA6A009214481549154AFFF750
:1030CC004BFF14487968BA6AFFF714FEBA6A3B687A
:1030DC0013449B00FA681344FB60BA6A3B6A1344BE
:1030EC009B00BA681344BB60BA6A7B6A13449B00AA
:1030FC007A6813447B607B6901337B617A69FB6A74
:10310C009A42CBD31837BD4680BD00BFAC400220DD
:10311C00AC4F0220AC31022080B485B000AFF86017
:10312C00B9607A603B60174B4FF481321A60154BD3
:10313C00FA68DA60134BBA68DA63124B7A681A6170
:10314C00104B3A681A640F4B0522DA610D4BBA69C1
:10315C005A630C4BFA6911043A6A0A435A64094BD4
:10316C00084A126842F001021A6000BF054B1B6846
:10317C0003F00103002BF9D11437BD465DF8047B35
:10318C00704700BF00B00240B0B58CB004AFF8601F
:10319C00B9607A603B60FB681846FFF7D5FBF861B5
:1031AC002A49FA681346DB009B1A9B000B441B68E8
:1031BC0019462648FA681346DB009B1A9B00034409
:1031CC0008335B687A6802FB03F2BB68D0181F4CAB
:1031DC00FA681346DB009B1A9B00234410335B6890
:1031EC0003FB00F31846194CFA681346DB009B1AD4
:1031FC009B00234408331B68FA6902FB03F3034466
:10320C000B44BB61BB6BDA0F13445B101A463B6B70
:10321C00D31A7B610D49FA681346DB009B1A9B009D
:10322C000B4408335A683B6BD31A3B61F968BA6993
:10323C003B6B7D6B7C693869009501940290084664
:10324C003968FFF713FB2037BD46B0BD9031022023
:10325C00B0B58EB004AFF860B9607A603B60FB68C3
:10326C001846FFF771FB78622A49FA681346DB00AF
:10327C009B1A9B000B441B6819462648FA68134698
:10328C00DB009B1A9B00034408335B687A6802FBE3
:10329C0003F2BB68D0181F4CFA681346DB009B1A6C
:1032AC009B00234410335B6803FB00F31846194C56
:1032BC00FA681346DB009B1A9B00234408331B68F7
:1032CC007A6A02FB03F303440B443B623A6CBB6B1C
:1032DC00D31AFB610F49FA681346DB009B1A9B005B
:1032EC000B4408335A68BB6BD31ABB61FB68184696
:1032FC00FFF760FA7861396AFA69BB69BC6BF86BE5
:10330C007D690095019402903868FFF705FF283716
:10331C00BD46B0BD9031022080B584B000AF78605E
:10332C000023FB607B68002B01D1012349E07B6803
:10333C0093F83930DBB2002B02D17868FEF70AFE25
:10334C007B68022283F839207B681B681B68FB6052
:10335C00FB6823F44033FB607B685B68FA681343BB
:10336C00FB607B681B68FA681A607B681B685B6B88
:10337C00FB60FB6823F00703FB607B689B68FA68C3
:10338C001343FB607B681B68FA685A637B681B6895
:10339C001B6CFB60FB6823F47F5323F03F03FB6043
:1033AC007B68DB68FA681343FB607B681B68FA6810
:1033BC001A647B680022DA637B68012283F8392067
:1033CC00002318461037BD4680BD00BF80B582B0C3
:1033DC0000AF00237B60484B484A1A60484B0222DE
:1033EC001A60474B07225A60454B04229A60444BA3
:1033FC000722DA60424B02221A61414B02225A61C7
:10340C003F4B02229A613C4B01225A603A4B0022FC
:10341C009A60394B0422DA60374B10221A61364B12
:10342C0040225A61344B4FF4C0729A61324B0022E5
:10343C00DA61314B4FF400621A622F4B00225A6250
:10344C002D4B4FF400529A622B482D4901F0F2FE9D
:10345C002C4B01221A602B4B08225A60294B01225B
:10346C009A60284B0022DA60234826494FF4805298
:10347C0001F01CFF234B02221A60224B08225A60D7
:10348C00204B01229A601F4B0022DA601A481D491A
:10349C004FF4805201F00AFF1A4B03221A60194BA9
:1034AC0008225A60174B04229A60164B0022DA60ED
:1034BC00114814494FF4805201F0F8FE40F23123C8
:1034CC007B60104B04221A600E4B08225A600D4B85
:1034DC0001229A607A680B4BDA60074809494FF46D
:1034EC00805201F0E3FE044840F2695101F00AFFFA
:1034FC000837BD4680BD00BFDC620220400100A041
:10350C00106302202C63022080B584B000AF024609
:10351C000B46FA80BB800123FB73134BFA881A808D
:10352C00124BBA881A80124B5B688220984703466C
:10353C001A4640F611039A4204D10E4B0C4A1A60FB
:10354C000023FB73FB7B002B09D10A4B1B681B6808
:10355C0082209847074B1B68DB6882209847FB7BCF
:10356C0018461037BD4680BD4063022042630220DE
:10357C001C0000203C63022080B586B000AF786050
:10358C004E4B1B681B698220984703461A467B6882
:10359C001A807B681B88002B00F08D80474B1B68C2
:1035AC005B6907F10E0107F10C0282209847BB8979
:1035BC00A3F5B4739BB2BB81BA89414BA3FB021335
:1035CC00DB08BB82BB8A002B02D10023BB8208E044
:1035DC003C4B1B88BA8A9A4203D93A4B1B88013B55
:1035EC00BB82BB8ABB81FA8940F6B8339A4206D8B3
:1035FC00FB89C3F571630E339BB2FB8105E0FB893C
:10360C00C3F56D6308339BB2FB81FA892E4BA3FB88
:10361C000213DB08FB82FB8A002B02D10023FB8206
:10362C0008E02A4B1B88FA8A9A4203D9274B1B883D
:10363C00013BFB82FB8AFB81FB891A46244B1B68EE
:10364C009A4206D9FA89224B1B689BB2D31A9BB2B9
:10365C0005E01F4B1B689AB2FB89D31A9BB27B8285
:10366C00BB891A461B4B1B689A4206D9BA89194B5F
:10367C001B689BB2D31A9BB205E0164B1B689AB21F
:10368C00BB89D31A9BB23B827A8A3B8A1344052BA3
:10369C0007DDFB891A460E4B1A60BB891A460D4B87
:1036AC001A600B4B1B689AB27B685A80094B1B68DB
:1036BC009AB27B689A801837BD4680BD3C63022065
:1036CC00A38B2EBA4263022089888888406302202B
:1036DC00446302204863022080B584B004AF00F03C
:1036EC006FF800230093002301930023029300231F
:1036FC000393054805494FF40062002300F00EFDCA
:10370C0000F0F2FDFEE700BF1D370008143701087A
:10371C0090B59DB002AF00F073FCFFF757FEF020A0
:10372C004FF4A071FFF7F0FE0346002B05D12048A3
:10373C004FF40051012204F091F9032002F0EAFB4E
:10374C004FF0FF300021002202F0EEFB194B0093EA
:10375C00194832210122012300F088F90246174B47
:10376C001A60164B1B68002B06D111484FF4804190
:10377C00012204F073F90CE0104B1C6800F080FE81
:10378C00034600220092204601211A46002300F035
:10379C00A3F9042006F0A8FA0BF020FD00F010F9B4
:1037AC000BF0CAFAFA200AF067FF0BF0C5FAF9E73A
:1037BC00001802403139000824370108DCA402202B
:1037CC0080B500AF01F0E2FA00F002F880BD00BF56
:1037DC0080B592B000AF1E4B1D4A126C42F0805265
:1037EC001A641C4B1B4A126842F440421A600123B3
:1037FC007B600123BB600223FB614FF480033B62BF
:10380C0008237B624FF4B473BB620223FB62072371
:10381C003B633B1D184601F009FE0D237B6302231D
:10382C00BB630023FB634FF4A0533B644FF4805302
:10383C007B6407F134031846052102F053F8044B5E
:10384C00034A126B42F480521A634837BD4680BD5E
:10385C00003802400070004080B582B000AF2D48A7
:10386C004FF4804104F012F92B48FFF785FE2A4BE8
:10387C001B88DAB2294B1A72294B5A88264B5B8863
:10388C009A4206D9264B5A88234B5B88D31A9BB293
:10389C0005E0214B5A88224B5B88D31A9BB2FB80E4
:1038AC001F4B9A881C4B9B889A4206D91C4B9A88B2
:1038BC00194B9B88D31A9BB205E0174B9A88184B6F
:1038CC009B88D31A9BB2BB80154B1A88124B1B8852
:1038DC009A4205D1FB88032B02D8BB88032B15D940
:1038EC000F4B0D4A92E8030083E803000B4B0022B8
:1038FC005A72094B5B881A46084B1A60064B9B8818
:10390C001A46064B5A6005480AF096FF0837BD4622
:10391C0080BD00BF00180240D4A40220C8A402201D
:10392C00C0A4022080B582B000AF7860FFF794FF8E
:10393C000837BD4680BD00BF80B584B000AF78604D
:10394C007B681B68262B34D17B689B68184606F075
:10395C00BFFBF8607B68DB68BB60FB6840F602026B
:10396C0093420FD040F60302934216D040F6010268
:10397C00934200D021E0BB68012B01D0022B00E068
:10398C0000BF15E0BB68022B03D0052B03D0012B25
:10399C0002E000BF0CE000BF0AE0BB68022B03D0C2
:1039AC00052B03D0012B02E000BF00E000BF00BFDD
:1039BC0003E0786807F058FD00BF1037BD4680BDA6
:1039CC0080B584B002AF06F0DDFB03460022009206
:1039DC000022019205480421054A05F095FD786006
:1039EC007B6818460837BD4680BD00BF50370108BC
:1039FC004539000880B500AF03F02AFE01F004FA47
:103A0C0080BD00BF80B500AF0148FDF753FD80BD00
:103A1C0018A4022080B586B004AF00237B6000F0B0
:103A2C0087FA0F4B1B68002B0FD00B23009300233E
:103A3C00019300230293002303930A480A494FF48D
:103A4C008072002300F06AFB78607B68002B02D147
:103A5C0003F0C4FDFEE77B6818460837BD4680BD01
:103A6C007C630220E13B0008C037010880B586B0BA
:103A7C0000AFF860B9607A603B60BB68002B02D184
:103A8C0000237B611CE02C2004F07EFA78617B69BA
:103A9C00002B15D000F04CFA7B69FA681A607B6930
:103AAC00BA689A617B697A68DA617B693A681A62EA
:103ABC007B693A6A5A627B690433184602F08AFAC7
:103ACC00BB68002B02D103F089FDFEE77B69184629
:103ADC001837BD4680BD00BF80B588B000AFF86018
:103AEC00B9607A603B600023FB611D4B1B68002BA7
:103AFC0030D0BB683B617B687B61FB68BB61BB689A
:103B0C00052B1CDC01F084F80346022B0BD1144B63
:103B1C001A6807F1100310461946BA6A002303F01D
:103B2C00F9F8F86116E00E4B1A6807F1100310460D
:103B3C0019460022002303F0EDF8F8610AE0084B67
:103B4C001A6807F11003104619463A68002303F06F
:103B5C00A1F9F861FB6918462037BD4680BD00BF4E
:103B6C007C63022080B586B002AF78603960184B58
:103B7C001B68DB68DB68FB60FB680433184602F0EB
:103B8C0091FAFB68DB69012B1BD1FB689A697B6896
:103B9C001344F86819463A687B6800F0A7F80346A6
:103BAC00012B0ED100230093F86800217A680023C2
:103BBC00FFF792FFB860BB68002B02D103F00EFD3B
:103BCC00FEE7FB685B6AF86898471037BD4680BD16
:103BDC007463022080B584B000AF786007F10803ED
:103BEC00184600F03FF8F860BB68F868194600F01A
:103BFC0003F800F0BDF8F1E780B584B000AF786051
:103C0C00396000F0A9FB07F10803184600F04EF8E4
:103C1C00F860BB68002B1ED13B68002B0AD17A6878
:103C2C00FB689A4206D800F0A5FB7868F968FFF7A4
:103C3C0099FF12E00A4B1A687968FB68CB1A104698
:103C4C00194603F09FFB00F095FB0346002B04D1B3
:103C5C0003F08CFC01E000F08DFB1037BD4680BDFD
:103C6C007C63022080B485B000AF78600E4B1B687B
:103C7C001B68002B14BF00230123DBB21A467B68A0
:103C8C001A607B681B68002B05D1074B1B68DB682F
:103C9C001B68FB6001E00023FB60FB6818461437CF
:103CAC00BD465DF8047B70477463022080B584B018
:103CBC0000AF786000F0E4FBF8600B4B1B68FA680F
:103CCC009A4205D200F0DCF87B6801221A6002E00F
:103CDC007B6800221A60044BFA681A60FB6818466D
:103CEC001037BD4680BD00BF8063022080B586B012
:103CFC0000AFF860B9607A603B6000237B61FB68C1
:103D0C00BA685A60FB68FA681A61BA687B689A42AA
:103D1C0012D87A683B68D21AFB689B699A4202D324
:103D2C0001237B611BE0104B1A68FB6804331046BF
:103D3C00194602F07FF912E07A683B689A4206D283
:103D4C00BA683B689A4202D301237B6107E0074BB8
:103D5C001A68FB6804331046194602F06BF97B694C
:103D6C0018461837BD4680BD786302207463022064
:103D7C0080B58AB002AF70E0BB68002B6DDB3B698D
:103D8C00FB61FB695B69002B04D0FB6904331846AB
:103D9C0002F088F93B1D1846FFF788FFB861BB6835
:103DAC00092B59D801A252F823F000BFE13D0008BD
:103DBC00E13D0008E13D0008653E0008333E000887
:103DCC005D3E0008E13D0008E13D0008653E00084D
:103DDC00333E0008FA68FB699B691A44FB68F86972
:103DEC001146BA69FFF782FF0346012B1AD1FB6912
:103DFC005B6AF8699847FB69DB69012B12D1FA6899
:103E0C00FB699B69134400220092F86900211A4651
:103E1C000023FFF761FE78617B69002B02D103F070
:103E2C00DDFBFEE719E0FA68FB699A61FB699B69A7
:103E3C00002B02D103F0D2FBFEE7FB699A69BB6948
:103E4C001344F8691946BA69BB69FFF74FFF04E0E0
:103E5C00F86904F0DFF800E000BF084B1A6807F1BE
:103E6C000803104619460022002303F07DF8034690
:103E7C00002B81D12037BD4680BD00BF7C63022062
:103E8C0080B588B002AF3DE0274B1B68DB681B6830
:103E9C007B61254B1B68DB68DB683B613B6904334A
:103EAC00184602F0FFF83B695B6A386998473B6932
:103EBC00DB69012B26D13B699A697B691344FB6052
:103ECC00FA687B699A420ED93B69FA685A603B6979
:103EDC003A691A61144B1A683B6904331046194647
:103EEC0002F0A8F80EE000230093386900217A69EB
:103EFC000023FFF7F1FDB860BB68002B02D103F083
:103F0C006DFBFEE7084B1B681B68002BBCD1064BF6
:103F1C001B687B60054B1A68034B1A60034B7A686D
:103F2C001A601837BD4680BD746302207863022086
:103F3C0080B500AF03F02AFB154B1B68002B24D176
:103F4C00144802F027F8144802F024F8134B114AD5
:103F5C001A60134B104A1A600A200C21002202F03E
:103F6C004FFE02460A4B1A60094B1B68002B02D10C
:103F7C0003F034FBFEE7064B1B68002B05D0044B0B
:103F8C001B681846074903F0D5F903F00FFB80BDF9
:103F9C007C6302204C630220606302207463022065
:103FAC0078630220C8370108DFF838D0002100F010
:103FBC0004B80D4B5B58435004310C480C4B421861
:103FCC009A42FFF4F6AF0B4A00F003B8002342F814
:103FDC00043B094B9A42FFF4F9AF02F08DF8FFF75E
:103FEC007BFB7047000003201C56010800000020DA
:103FFC005001002050010020D0A60220FFF7FEBF88
:10400C0080B500AF3D4B3D4A926B42F001029A6382
:10401C003A4B3A4A126B42F002021A63374B374A58
:10402C00126B42F004021A63344B344A126B42F0A6
:10403C0008021A63314B314A126B42F010021A63B8
:10404C002E4B2E4A126B42F020021A632B4B2B4A3A
:10405C00126B42F040021A63294B02225A60284B21
:10406C000222DA60264B00229A60254B0C221A6140
:10407C00234B60221A602348214903F04DFB204B4F
:10408C0001221A6020481E4903F046FB1C4B4CF2DF
:10409C0003721A601D481A4903F03EFB184B4FF689
:1040AC0083721A601A48164903F036FB144B4FF60C
:1040BC003F021A601748124903F02EFB104B48F2CE
:1040CC0033121A6014480E4903F026FB0C4B4FF4C4
:1040DC00C0421A600A4B01225A60094B01229A60B5
:1040EC00074B0222DA600C48054903F015FB0A481D
:1040FC004FF4C041002203F0B1FC80BD00380240F7
:10410C00846302200004024000080240000C0240BC
:10411C0000100240001402400018024080B58AB022
:10412C0002AFF860B9603B601346FB80FB68002B64
:10413C0002D103F053FAFEE7BB6A0B2B02D903F052
:10414C004DFAFEE7FB881846396B00F0EBFCB861C2
:10415C00BB69002B72D0BB691A6BFB8803F18043DF
:10416C00013B9B0013447B617B6923F007037B615C
:10417C007B6903F00703002B02D003F02FFAFEE754
:10418C00FB880093B869B968BA6A7B6B00F0D4FB02
:10419C007869F9683A6803F021F90246BB691A603C
:1041AC00FB6A002B02D0FB6ABA691A6003F0EEF9C5
:1041BC002E4B1B685A1C2D4B1A602D4B1B68002B69
:1041CC0009D12B4BBA691A60284B1B68012B0FD1F4
:1041DC0000F0FAFB0CE0274B1B68002B08D1244B9A
:1041EC001B68DA6ABB6A9A4202D8214BBA691A6018
:1041FC00214B1B685A1C204B1A601F4B1A68BB6959
:10420C005A64BB69DA6A1D4B1B689A4203D9BB69B5
:10421C00DA6A1A4B1A60BB69DA6A13469B001344BC
:10422C009B00174A1A44BB6904331046194601F027
:10423C00DDFE0123FB6103F0B9F902E04FF0FF331F
:10424C00FB61FB69012B0BD10A4B1B68002B07D0C0
:10425C00074B1B68DA6ABB6A9A4201D203F086F9F3
:10426C00FB6918462037BD4680BD00BFFC640220A8
:10427C00986302200865022018650220046502205C
:10428C009C63022080B584B000AF78600023FB6093
:10429C007B68002B19D0114B1B68002B02D003F04C
:1042AC009DF9FEE700F058F80D4B1A687B68134433
:1042BC00BB600C4B1B680433184601F0F3FEB86866
:1042CC0000F0FAFB00F056F8F860FB68002B01D107
:1042DC0003F04CF91037BD4680BD00BF1C650220B1
:1042EC00006502209863022080B586B004AF0023DD
:1042FC00009300230193002302930023039312489D
:10430C00124980220023FFF709FF78607B68012B9C
:10431C0002D1FFF77FFB78607B68012B0AD103F099
:10432C005DF90B4B01221A600A4B00221A6003F054
:10433C00B5F805E07B68002B02D103F04FF9FEE7DE
:10434C000837BD4680BD00BF25490008D03701089D
:10435C00086502200065022080B400AF044B1B6886
:10436C005A1C034B1A60BD465DF8047B704700BFB6
:10437C001C65022080B582B000AF00237B60384BF7
:10438C001B68002B02D103F029F9FEE703F0FEF8BD
:10439C00334B1B685A1E324B1A60314B1B68002B77
:1043AC0056D1304B1B68002B52D02FE02E4BDB68C4
:1043BC00DB683B603B681833184601F073FE3B68C2
:1043CC000433184601F06EFE3B68DA6A274B1B6813
:1043DC009A4203D93B68DA6A244B1A603B68DA6A62
:1043EC0013469B0013449B00214A1A443B68043338
:1043FC001046194601F0FAFD3B68DA6A1D4B1B6842
:10440C00DB6A9A4202D31C4B01221A60164B1B68C2
:10441C00002BCBD1194B1B68002B11D00CE000F0FA
:10442C0041F80346002B02D0134B01221A60134BA8
:10443C001B685A1E114B1A60104B1B68002BEED1D7
:10444C000D4B1B68012B03D101237B6003F08EF80D
:10445C0003F0ACF87B6818460837BD4680BD00BF3A
:10446C001C650220FC640220BC640220046502204E
:10447C009C63022098630220106502200C650220C8
:10448C0080B582B000AF03F081F8054B1B687B60F0
:10449C0003F08CF87B6818460837BD4680BD00BF1A
:1044AC000065022080B586B000AF00237B614E4BC7
:1044BC001B68002B40F087804C4B1B685A1C4B4BE5
:1044CC001A604A4B1B683B613B69002B18D1484B67
:1044DC001B681B68002B02D003F080F8FEE7444BEE
:1044EC001B68FB60434B1A68414B1A60414BFA68DE
:1044FC001A60414B1B685A1C3F4B1A6000F054FB6E
:10450C003E4B1B683A699A424ED3394B1B681B6869
:10451C00002B01D1012300E00023002B04D0374BEA
:10452C004FF0FF321A603FE0314B1B68DB68DB68F1
:10453C00BB60BB685B687B603A697B689A4203D25C
:10454C002E4B7A681A602FE0BB680433184601F0D2
:10455C00A9FDBB689B6A002B04D0BB6818331846B6
:10456C0001F0A0FDBB68DA6A254B1B689A4203D99F
:10457C00BB68DA6A224B1A60BB68DA6A13469B0086
:10458C0013449B001F4A1A44BB6804331046194657
:10459C0001F02CFDBB68DA6A1B4B1B68DB6A9A4284
:1045AC0001D301237B61B0E7174B1B68DA6A15490D
:1045BC0013469B0013449B000B441B68012B07D92B
:1045CC0001237B6104E0114B1B685A1C0F4B1A60D2
:1045DC000F4B1B68002B01D001237B617B691846B4
:1045EC001837BD4680BD00BF1C6502200065022047
:1045FC00B4640220B8640220146502200400002078
:10460C00046502209C630220986302200C65022042
:10461C001065022080B582B000AF224B1B68002BC6
:10462C0003D0214B01221A6038E01F4B00221A6084
:10463C000BE01E4B1B68002B02D102F0CFFFFEE7F4
:10464C001A4B1B685A1E194B1A60184B1A681849DA
:10465C0013469B0013449B000B441B68002BE8D0B3
:10466C00124B1A6813469B0013449B00104A1344C8
:10467C007B607B685B685A687B685A607B685A68A9
:10468C007B6808339A4204D17B685B685A687B6804
:10469C005A607B685B68DA68064B1A600837BD465F
:1046AC0080BD00BF1C65022010650220046502203D
:1046BC009C6302209863022080B584B000AF7860C0
:1046CC0039607B68002B02D102F088FFFEE7124BA9
:1046DC001B6818337868194601F0ACFC0E4B1B684C
:1046EC000433184601F0DEFC3B68B3F1FF3F07D101
:1046FC00094B1B6804330948194601F077FC07E0A5
:10470C00074B1A683B681344FB60F86800F0D4F957
:10471C001037BD4680BD00BF98630220E8640220BC
:10472C000065022080B584B000AF786039607B688A
:10473C00002B02D102F052FFFEE70C4B1B68183322
:10474C007868194601F052FC084B1B680433184674
:10475C0001F0A8FC064B1A683B681344FB60F86830
:10476C0000F0AAF91037BD4680BD00BF9863022047
:10477C000065022080B584B000AF78607B68DB6890
:10478C00DB68BB60BB68002B02D102F027FFFEE7A1
:10479C00BB681833184601F085FC1E4B1B68002BB8
:1047AC001DD1BB680433184601F07CFCBB68DA6A87
:1047BC00194B1B689A4203D9BB68DA6A164B1A600C
:1047CC00BB68DA6A13469B0013449B00134A1A44D5
:1047DC00BB6804331046194601F008FC05E0BB68C1
:1047EC0018330F48194601F001FCBB68DA6A0D4B0F
:1047FC001B68DB6A9A4205D90123FB600A4B012234
:10480C001A6001E00023FB60FB6818461037BD46B8
:10481C0080BD00BF1C650220046502209C63022041
:10482C00BC640220986302201065022080B582B01F
:10483C0000AF78607B68002B02D102F0CFFEFEE760
:10484C00054B1A687B681A60044B1A687B685A60BF
:10485C000837BD4680BD00BF1465022000650220EC
:10486C0080B584B000AF786039607B68002B02D1D2
:10487C0002F0B4FEFEE73B68002B02D102F0AEFE64
:10488C00FEE702F083FE1C4B1B68BB603B681B6899
:10489C00B3F1FF3F02D10023FB6026E07B681A686E
:1048AC00164B1B689A4207D07B685A68BB689A42C1
:1048BC0002D80123FB6018E07B685B68BA68D21AE7
:1048CC003B681B689A420ED23B681A687B68596831
:1048DC00BB68CB1A1A443B681A607868FFF7A6FFCE
:1048EC000023FB6001E00123FB6002F05FFEFB682C
:1048FC0018461037BD4680BD0065022014650220A5
:10490C0080B400AF034B01221A60BD465DF8047BF6
:10491C00704700BF1065022080B582B000AF786090
:10492C0000F090F8034B1B68012B01D902F01EFE1E
:10493C00F6E700BF9C63022080B586B000AFF8603C
:10494C00B9607A603B6000237B6112E0BA687B69D6
:10495C0013441A78F9687B690B4430331A71BA68BE
:10496C007B6913441B78002B00D105E07B69013374
:10497C007B617B690F2BE9D9FB68002283F843200C
:10498C007B680B2B01D90B237B60FB687A68DA629E
:10499C00FB687A68DA64FB680433184601F01AFB8A
:1049AC00FB681833184601F015FBFB68FA681A61AE
:1049BC007B68C3F10C02FB689A61FB68FA685A6267
:1049CC001837BD4680BD00BF80B582B000AF002354
:1049DC007B600CE07A6813469B0013449B00114AE1
:1049EC001344184601F0D6FA7B6801337B607B6870
:1049FC000B2BEFD90C4801F0CDFA0C4801F0CAFA98
:104A0C000B4801F0C7FA0B4801F0C4FA0A4801F050
:104A1C00C1FA0A4B044A1A60094B044A1A60083757
:104A2C00BD4680BD9C6302208C640220A0640220E1
:104A3C00BC640220D0640220E8640220B46402202A
:104A4C00B864022080B582B000AF28E0FFF784FC88
:104A5C00164B1B68002B14BF00230123DBB27B60B9
:104A6C00FFF788FC7B68002B19D102F08FFD0F4BF0
:104A7C00DB68DB683B603B680433184601F012FBD3
:104A8C000B4B1B685A1E0A4B1A600A4B1B685A1EAA
:104A9C00084B1A6002F08AFD386800F075F8054B77
:104AAC001B68002BD2D10837BD4680BDD0640220D4
:104ABC00FC640220E464022080B582B000AF786010
:104ACC00134B1B687A685A60124B1B687A689A42BF
:104ADC0009D2114B1A680E4B1B6804331046194649
:104AEC0001F0A8FA10E00D4B1A68094B1B6804334F
:104AFC001046194601F09EFA094B1B687A689A42D7
:104B0C0002D2074B7A681A600837BD4680BD00BFD9
:104B1C009863022000650220B8640220B46402206D
:104B2C000400002080B584B000AF03463960FB80E0
:104B3C00502003F029FAF860FB68002B1FD03B686B
:104B4C00002B06D1FB889B00184603F01DFA034688
:104B5C0000E03B68FA681363FB681B6B002B05D104
:104B6C00F86803F057FA0023FB6008E0FB681A6B47
:104B7C00FB889B001046A5211A460EF01DFDFB6814
:104B8C0018461037BD4680BD80B582B000AF786046
:104B9C007B681B6B184603F03DFA786803F03AFA11
:104BAC000837BD4680BD00BF80B483B000AF0E4B4C
:104BBC001B681B68002B01D1012300E00023002B94
:104BCC0004D00A4B4FF0FF321A6008E0064B1B680A
:104BDC00DB68DB687B607B685A68044B1A600C37B7
:104BEC00BD465DF8047B7047B464022004000020CD
:104BFC0080B483B000AF054B1B687B607B681846A4
:104C0C000C37BD465DF8047B704700BF98630220EB
:104C1C0080B483B000AF0B4B1B68002B02D1012377
:104C2C007B6008E0084B1B68002B02D102237B60E1
:104C3C0001E000237B607B6818460C37BD465DF8AD
:104C4C00047B7047086502201C65022080B584B087
:104C5C0000AF78607B68FB607B68002B4AD0FB68F8
:104C6C00DA6A264B1B68DB6A9A4243D2FB689B6963
:104C7C00002B06DB214B1B68DB6AC3F10C02FB68C3
:104C8C009A61FB685969FB68DA6A13469B00134406
:104C9C009B001B4A1344994201D1012300E00023DD
:104CAC00002B22D0FB680433184601F0FBF9134BA0
:104CBC001B68DA6AFB68DA62FB68DA6A114B1B68FC
:104CCC009A4203D9FB68DA6A0E4B1A60FB68DA6AFF
:104CDC0013469B0013449B00094A1A44FB68043397
:104CEC001046194601F082F904E0044B1B68DA6A9D
:104CFC00FB68DA621037BD4680BD00BF98630220A6
:104D0C009C6302200465022080B584B000AF7860FB
:104D1C007B68FB607B68002B30D0FB68DA6AFB6831
:104D2C00DB6C9A422AD0FB680433184601F0BAF9BE
:104D3C00FB68DA6CFB68DA62FB689B69002B05DBAD
:104D4C00FB68DB6AC3F10C02FB689A61FB68DA6AE8
:104D5C000C4B1B689A4203D9FB68DA6A094B1A6040
:104D6C00FB68DA6A13469B0013449B00064A1A44FC
:104D7C00FB6804331046194601F038F91037BD466C
:104D8C0080BD00BF046502209C63022080B500AF8B
:104D9C000E4B0E4A126842F400721A600B4B0B4A0F
:104DAC00126842F480621A60084B084A126842F496
:104DBC0080721A60032001F0ADF8002000F008F8B2
:104DCC0003F0DCF80023184680BD00BF003C024015
:104DDC0080B582B000AF786000F07EFF0246094BD0
:104DEC00A3FB02139B09184601F0C8F84FF0FF30E3
:104DFC007968002201F098F8002318460837BD4660
:104E0C0080BD00BFD34D621080B400AF044B1B6853
:104E1C005A1C034B1A60BD465DF8047B704700BFFB
:104E2C002065022080B400AF034B1B681846BD46BA
:104E3C005DF8047B704700BF2065022080B584B00C
:104E4C0000AF78600023FB60FFF7ECFFF86000BF59
:104E5C00FFF7E8FF0246FB68D21A7B689A42F7D349
:104E6C001037BD4680BD00BF80B598B000AF7860EC
:104E7C000023FB650023BB657B681B6803F0010303
:104E8C00002B06D17B681B6803F00203002B00F09B
:104E9C009180AA4B00221A60FFF7C4FFF86508E066
:104EAC00FFF7C0FF0246FB6DD31A642B01D9032315
:104EBC00B3E1A34B1B6803F00063002BF0D17B68BC
:104ECC001B6803F00103002B28D09D4B7A685168B6
:104EDC0047F6C0727A657A6D92FAA2F23A653A6D2B
:104EEC00FA64FA6CB2FA82F2BA64BA6CD2B2914039
:104EFC007A6890684FF0E0427A647A6C92FAA2F287
:104F0C003A643A6CFA63FA6BB2FA82F2BA63BA6B2D
:104F1C00D2B200FA02F20A43C3F884207B681B6801
:104F2C0003F00203002B2FD0854BD3F8843003F011
:104F3C00E0424FF0E0437B637B6B93FAA3F33B635C
:104F4C003B6BFB62FB6AB3FA83F3BB62BB6ADBB2FB
:104F5C0022FA03F3BB657A4B7A68526891017A683E
:104F6C00D26812061143BA6D12070A43C3F88420A3
:104F7C00734B734AD2F88C2022F01F017A68D269E5
:104F8C00013A0A43C3F88C206C4B01221A60FFF7DC
:104F9C0049FFF86508E0FFF745FF0246FB6DD31AA1
:104FAC00642B01D9032338E1654B1B6803F00063C4
:104FBC00002BF0D07B681B6803F00403002B06D198
:104FCC007B681B6803F00803002B00F098805D4B96
:104FDC0000221A60FFF726FFF86508E0FFF722FFB2
:104FEC000246FB6DD31A642B01D9032315E1544BF4
:104FFC001B6803F00053002BF0D17B681B6803F097
:10500C000403002B30D04E4BD3F8883003F0E04231
:10501C004FF0E0437B627B6A93FAA3F33B623B6AFB
:10502C00FB61FB69B3FA83F3BB61BB69DBB222FAA8
:10503C0003F3BB65424B7A68126991017A68526935
:10504C0012061143BA6D12070A43C3F888203C4B71
:10505C003B4AD2F88C2022F4F8517A68126A013A51
:10506C0012020A43C3F88C207B681B6803F0080308
:10507C00002B2ED0324BD3F8883003F070624FF0F7
:10508C0070637B617B6993FAA3F33B613B69FB60C3
:10509C00FB68B3FA83F3BB60BB68DBB222FA03F3A1
:1050AC00BB65274B7A6812699101BA6D12061143E0
:1050BC007A68926912070A43C3F88820204B204A69
:1050CC00D2F88C2022F440317A68526A0A43C3F831
:1050DC008C201C4B01221A60FFF7A4FEF86508E037
:1050EC00FFF7A0FE0246FB6DD31A642B01D90323F4
:1050FC0093E0134B1B6803F00053002BF0D07B683C
:10510C001B6803F02003002B7BD00D4B0C4A126C58
:10511C0042F080521A640C4B0B4A126842F48072B3
:10512C001A60FFF77FFEF86510E0FFF77BFE024682
:10513C00FB6DD31A642B09D903236EE06800474238
:10514C00003802407000474200700040354B1B682D
:10515C0003F48073002BE8D0334B1A6F7B689B6A87
:10516C00534003F44073002B0DD02F4B1B6F23F4D3
:10517C004073BB652D4B01221A602C4B00221A6028
:10518C00294BBA6D1A677B689B6AB3F5807F14D183
:10519C00FFF748FEF8650AE0FFF744FE0246FB6D98
:1051AC00D21A41F288339A4201D9032335E01E4BBF
:1051BC001B6F03F00203002BEED07B689B6A03F499
:1051CC004073B3F5407F0DD1174A174B9B6823F4FE
:1051DC00F8117B689B6A23F0704323F440730B43F4
:1051EC00936005E0104B104A926822F4F8129A6012
:1051FC000D4B0D4A116F7A68926AC2F30B020A4387
:10520C001A677B681B6803F01003002B04D0084B53
:10521C007A6892F82C201A60002318466037BD4635
:10522C0080BD00BF0070004000380240400E474275
:10523C00E011474280B582B000AF786039607B687E
:10524C00002B01D1012322E07B6893F82C30DBB2D8
:10525C00002B02D1786800F01FF87B68022283F8DB
:10526C002C207B681A687B6804331046194602F0C0
:10527C0081FD7B681A687B685B68104639681A4642
:10528C0002F0CAFD7B68012283F82C20002318460B
:10529C000837BD4680BD00BF80B483B000AF7860D6
:1052AC000C37BD465DF8047B704700BF80B584B0F9
:1052BC0000AFF860B9607A60FB6893F82C30DBB211
:1052CC00022B01D1022318E0FB68022283F82C2068
:1052DC00FB681B681846B9687A6802F0FDFDBB686C
:1052EC001B68022B04D1FB68052283F82C2003E0F9
:1052FC00FB68012283F82C20002318461037BD468A
:10530C0080BD00BF80B582B000AF786039607B682B
:10531C0093F82C30DBB2022B01D102230EE07B6818
:10532C00022283F82C207B681B681846396802F02F
:10533C0011FE7B68012283F82C20002318460837C5
:10534C00BD4680BD80B500AFFFF79AF803461846FE
:10535C0080BD00BF80B582B000AF78607B68184616
:10536C00FEF790FF0837BD4680BD00BF80B400AF8C
:10537C00BD465DF8047B704780B500AF012001F09D
:10538C0081FC0246124B1A60114B1B68002B02D198
:10539C0002F024F9FEE701200021032201F030FC89
:1053AC0002460C4B1A600B4B1B68002B07D0094BA9
:1053BC001B68184600210022002301F0ABFC054BB2
:1053CC001B68002B02D102F009F9FEE780BD00BF7B
:1053DC00246502202865022080B500AF044B1B68B1
:1053EC00184600210022002301F094FC80BD00BF70
:1053FC002465022080B500AF074B1B68002B01D140
:10540C00FFF7BAFF044B1B68184600214FF0FF3220
:10541C00002301F0A9FD80BD2465022080B500AFFA
:10542C00FFF7E6FB0346184680BD00BF80B598B079
:10543C0000AF78600023FB657B681B6803F00103F9
:10544C00002B6AD0A44B9B6803F00C03042B0BD0ED
:10545C00A14B9B6803F00C03082B12D19E4B5B688D
:10546C0003F48003002B0CD09B4B1B6803F400331C
:10547C00002B05D07B685B68012B01D0012325E252
:10548C004BE0964B00221A70FFF7CCFCF8650AE053
:10549C00FFF7C8FC0246FB6DD21A41F288339A42E0
:1054AC0001D9032312E28C4B1B6803F40033002B4D
:1054BC00EED18A4B7A685268D2B21A707B685B68FC
:1054CC00012B15D1FFF7AEFCF8650AE0FFF7AAFC3B
:1054DC000246FB6DD21A41F288339A4201D903235A
:1054EC00F4E17D4B1B6803F40033002BEED014E089
:1054FC00FFF798FCF8650AE0FFF794FC0246FB6D99
:10550C00D21A41F288339A4201D90323DEE1724B5D
:10551C001B6803F40033002BEED17B681B6803F08F
:10552C000203002B00F082806B4B9B6803F00C0392
:10553C00002B0BD0684B9B6803F00C03082B2BD172
:10554C00654B5B6803F48003002B25D1624B1B6811
:10555C0003F00203002B05D07B68DB68012B01D024
:10556C000123B3E15C4B5C4A126822F0F8017A68C3
:10557C001069F822BA65BA6D92FAA2F27A657A6D60
:10558C003A653A6DB2FA82F2FA64FA6CD2B200FA67
:10559C0002F20A431A6049E07B68DB68002B2FD0CB
:1055AC004F4B01221A60FFF73DFCF86508E0FFF74E
:1055BC0039FC0246FB6DD31A642B01D9032385E118
:1055CC00454B1B6803F00203002BF0D0424B424AC0
:1055DC00126822F0F8017A681069F822BA64BA6C81
:1055EC0092FAA2F27A647A6C3A643A6CB2FA82F267
:1055FC00FA63FA6BD2B200FA02F20A431A6015E0AF
:10560C00374B00221A60FFF70DFCF86508E0FFF736
:10561C0009FC0246FB6DD31A642B01D9032355E117
:10562C002D4B1B6803F00203002BF0D17B681B6829
:10563C0003F00803002B30D07B685B69002B16D07D
:10564C00284B01221A60FFF7EDFBF86508E0FFF725
:10565C00E9FB0246FB6DD31A642B01D9032335E118
:10566C001D4B5B6F03F00203002BF0D015E01D4BBC
:10567C0000221A60FFF7D6FBF86508E0FFF7D2FBB3
:10568C000246FB6DD31A642B01D903231EE1124B86
:10569C005B6F03F00203002BF0D17B681B6803F0F7
:1056AC000403002B74D00C4B0B4A126C42F080524A
:1056BC001A640D4B0C4A126842F480721A60FFF7A0
:1056CC00B1FBF86512E0FFF7ADFB0246FB6DD31A98
:1056DC00642B0BD90323F9E0003802400238024056
:1056EC0000004742800E474200700040794B1B6817
:1056FC0003F48073002BE6D0774B00221A70FFF76F
:10570C0091FBF8650AE0FFF78DFB0246FB6DD21AA0
:10571C0041F288339A4201D90323D7E06F4B1B6FB8
:10572C0003F00203002BEED16B4B7A689268D2B275
:10573C001A707B689B68012B15D1FFF773FBF8651A
:10574C000AE0FFF76FFB0246FB6DD21A41F2883379
:10575C009A4201D90323B9E0604B1B6F03F002039B
:10576C00002BEED014E0FFF75DFBF8650AE0FFF7C5
:10577C0059FB0246FB6DD21A41F288339A4201D989
:10578C000323A3E0554B1B6F03F00203002BEED158
:10579C007B689B69002B00F09880504B9B6803F052
:1057AC000C03082B00F08F807B689B69022B73D154
:1057BC004B4B00221A60FFF735FBF86508E0FFF74A
:1057CC0031FB0246FB6DD31A642B01D903237DE018
:1057DC00424B1B6803F00073002BF0D13F4B7A68EF
:1057EC00116A7A68506A47F6C072BA63BA6B92FA59
:1057FC00A2F27A637A6B3A633A6BB2FA82F2FA6289
:10580C00FA6AD2B200FA02F211437A68926A52082A
:10581C00501E4FF44032BA62BA6A92FAA2F27A621D
:10582C007A6A3A623A6AB2FA82F2FA61FA69D2B2E6
:10583C0000FA02F211437A68D26911437A68D06A8D
:10584C004FF07062BA61BA6992FAA2F27A617A691F
:10585C003A613A69B2FA82F2FA60FA68D2B200FAA4
:10586C0002F20A4342F000525A601D4B01221A60A8
:10587C00FFF7D8FAF86508E0FFF7D4FA0246FB6D9B
:10588C00D31A642B01D9032320E0144B1B6803F0BB
:10589C000073002BF0D018E0114B00221A60FFF7B8
:1058AC00C1FAF86508E0FFF7BDFA0246FB6DD31AA2
:1058BC00642B01D9032309E0084B1B6803F0007328
:1058CC00002BF0D101E0012300E0002318466037E3
:1058DC00BD4680BD00700040703802400038024068
:1058EC006000474280B584B000AF78603960002317
:1058FC00FB60934B1B6803F00F023B689A4280F0ED
:10590C0090808F4B3A68D2B21A708D4B1B6803F0A3
:10591C000F023B689A4201D0012338E17B681B6877
:10592C0003F00203002B08D0864B864A926822F0C3
:10593C00F0017A6892680A439A607B681B6803F0EE
:10594C000103002B00F000817B685B68012B07D101
:10595C007C4B1B6803F40033002B15D1012316E19B
:10596C007B685B68022B07D1764B1B6803F00073D6
:10597C00002B09D101230AE1724B1B6803F00203CF
:10598C00002B01D1012302E16E4B6E4A926822F08A
:10599C0003017A6852680A439A60FFF743FAF86089
:1059AC007B685B68012B12D10AE0FFF73BFA0246D9
:1059BC00FB68D21A41F288339A4201D90323E6E0FC
:1059CC00604B9B6803F00C03042BEED1BCE07B68AE
:1059DC005B68022B12D10AE0FFF724FA0246FB683F
:1059EC00D21A41F288339A4201D90323CFE0554BA6
:1059FC009B6803F00C03082BEED1A5E00AE0FFF73F
:105A0C0011FA0246FB68D21A41F288339A4201D944
:105A1C000323BCE04B4B9B6803F00C03002BEED133
:105A2C0092E07B681B6803F00203002B08D0454B07
:105A3C00444A926822F0F0017A6892680A439A60AC
:105A4C007B681B6803F00103002B6BD07B685B68E1
:105A5C00012B07D13B4B1B6803F40033002B15D1F2
:105A6C00012394E07B685B68022B07D1354B1B68E4
:105A7C0003F00073002B09D1012388E0314B1B6824
:105A8C0003F00203002B01D1012380E02D4B2D4AA2
:105A9C00926822F003017A6852680A439A60FFF711
:105AAC00C1F9F8607B685B68012B12D10AE0FFF743
:105ABC00B9F90246FB68D21A41F288339A4201D9ED
:105ACC00032364E01F4B9B6803F00C03042BEED103
